{
  "contractName": "CarpoolingContract",
  "abi": [
    {
      "anonymous": false,
      "inputs": [
        {
          "indexed": true,
          "internalType": "uint256",
          "name": "bookingId",
          "type": "uint256"
        },
        {
          "indexed": true,
          "internalType": "uint256",
          "name": "rideId",
          "type": "uint256"
        }
      ],
      "name": "BookingCancelled",
      "type": "event"
    },
    {
      "anonymous": false,
      "inputs": [
        {
          "indexed": true,
          "internalType": "uint256",
          "name": "bookingId",
          "type": "uint256"
        },
        {
          "indexed": false,
          "internalType": "uint256",
          "name": "amount",
          "type": "uint256"
        }
      ],
      "name": "PaymentCompleted",
      "type": "event"
    },
    {
      "anonymous": false,
      "inputs": [
        {
          "indexed": true,
          "internalType": "uint256",
          "name": "bookingId",
          "type": "uint256"
        },
        {
          "indexed": true,
          "internalType": "uint256",
          "name": "rideId",
          "type": "uint256"
        },
        {
          "indexed": true,
          "internalType": "address",
          "name": "passenger",
          "type": "address"
        },
        {
          "indexed": false,
          "internalType": "uint256",
          "name": "seats",
          "type": "uint256"
        }
      ],
      "name": "RideBooked",
      "type": "event"
    },
    {
      "anonymous": false,
      "inputs": [
        {
          "indexed": true,
          "internalType": "uint256",
          "name": "rideId",
          "type": "uint256"
        }
      ],
      "name": "RideCancelled",
      "type": "event"
    },
    {
      "anonymous": false,
      "inputs": [
        {
          "indexed": true,
          "internalType": "uint256",
          "name": "rideId",
          "type": "uint256"
        },
        {
          "indexed": true,
          "internalType": "address",
          "name": "driver",
          "type": "address"
        },
        {
          "indexed": false,
          "internalType": "uint256",
          "name": "amount",
          "type": "uint256"
        }
      ],
      "name": "RideCompleted",
      "type": "event"
    },
    {
      "anonymous": false,
      "inputs": [
        {
          "indexed": true,
          "internalType": "uint256",
          "name": "rideId",
          "type": "uint256"
        },
        {
          "indexed": true,
          "internalType": "address",
          "name": "driver",
          "type": "address"
        },
        {
          "indexed": false,
          "internalType": "uint256",
          "name": "departureTime",
          "type": "uint256"
        }
      ],
      "name": "RideCreated",
      "type": "event"
    },
    {
      "inputs": [
        {
          "internalType": "uint256",
          "name": "",
          "type": "uint256"
        }
      ],
      "name": "bookings",
      "outputs": [
        {
          "internalType": "uint256",
          "name": "id",
          "type": "uint256"
        },
        {
          "internalType": "uint256",
          "name": "rideId",
          "type": "uint256"
        },
        {
          "internalType": "address",
          "name": "passenger",
          "type": "address"
        },
        {
          "internalType": "uint256",
          "name": "seats",
          "type": "uint256"
        },
        {
          "internalType": "bool",
          "name": "paid",
          "type": "bool"
        },
        {
          "internalType": "bool",
          "name": "refunded",
          "type": "bool"
        }
      ],
      "stateMutability": "view",
      "type": "function"
    },
    {
      "inputs": [
        {
          "internalType": "uint256",
          "name": "",
          "type": "uint256"
        }
      ],
      "name": "rides",
      "outputs": [
        {
          "internalType": "uint256",
          "name": "id",
          "type": "uint256"
        },
        {
          "internalType": "address payable",
          "name": "driver",
          "type": "address"
        },
        {
          "internalType": "uint256",
          "name": "seats",
          "type": "uint256"
        },
        {
          "internalType": "uint256",
          "name": "availableSeats",
          "type": "uint256"
        },
        {
          "internalType": "uint256",
          "name": "pricePerSeat",
          "type": "uint256"
        },
        {
          "internalType": "string",
          "name": "origin",
          "type": "string"
        },
        {
          "internalType": "string",
          "name": "destination",
          "type": "string"
        },
        {
          "internalType": "uint256",
          "name": "departureTime",
          "type": "uint256"
        },
        {
          "internalType": "bool",
          "name": "active",
          "type": "bool"
        }
      ],
      "stateMutability": "view",
      "type": "function"
    },
    {
      "inputs": [
        {
          "internalType": "address",
          "name": "",
          "type": "address"
        },
        {
          "internalType": "uint256",
          "name": "",
          "type": "uint256"
        }
      ],
      "name": "userBookings",
      "outputs": [
        {
          "internalType": "uint256",
          "name": "",
          "type": "uint256"
        }
      ],
      "stateMutability": "view",
      "type": "function"
    },
    {
      "inputs": [
        {
          "internalType": "address",
          "name": "",
          "type": "address"
        },
        {
          "internalType": "uint256",
          "name": "",
          "type": "uint256"
        }
      ],
      "name": "userRides",
      "outputs": [
        {
          "internalType": "uint256",
          "name": "",
          "type": "uint256"
        }
      ],
      "stateMutability": "view",
      "type": "function"
    },
    {
      "inputs": [
        {
          "internalType": "uint256",
          "name": "_seats",
          "type": "uint256"
        },
        {
          "internalType": "uint256",
          "name": "_pricePerSeat",
          "type": "uint256"
        },
        {
          "internalType": "string",
          "name": "_origin",
          "type": "string"
        },
        {
          "internalType": "string",
          "name": "_destination",
          "type": "string"
        },
        {
          "internalType": "uint256",
          "name": "_departureTime",
          "type": "uint256"
        }
      ],
      "name": "createRide",
      "outputs": [
        {
          "internalType": "uint256",
          "name": "",
          "type": "uint256"
        }
      ],
      "stateMutability": "nonpayable",
      "type": "function"
    },
    {
      "inputs": [
        {
          "internalType": "uint256",
          "name": "_rideId",
          "type": "uint256"
        },
        {
          "internalType": "uint256",
          "name": "_seats",
          "type": "uint256"
        }
      ],
      "name": "bookRide",
      "outputs": [
        {
          "internalType": "uint256",
          "name": "",
          "type": "uint256"
        }
      ],
      "stateMutability": "payable",
      "type": "function"
    },
    {
      "inputs": [
        {
          "internalType": "uint256",
          "name": "_rideId",
          "type": "uint256"
        }
      ],
      "name": "completeRide",
      "outputs": [],
      "stateMutability": "nonpayable",
      "type": "function"
    },
    {
      "inputs": [
        {
          "internalType": "uint256",
          "name": "_rideId",
          "type": "uint256"
        }
      ],
      "name": "cancelRide",
      "outputs": [],
      "stateMutability": "nonpayable",
      "type": "function"
    },
    {
      "inputs": [
        {
          "internalType": "uint256",
          "name": "_bookingId",
          "type": "uint256"
        }
      ],
      "name": "cancelBooking",
      "outputs": [],
      "stateMutability": "nonpayable",
      "type": "function"
    },
    {
      "inputs": [],
      "name": "getUserRides",
      "outputs": [
        {
          "internalType": "uint256[]",
          "name": "",
          "type": "uint256[]"
        }
      ],
      "stateMutability": "view",
      "type": "function"
    },
    {
      "inputs": [],
      "name": "getUserBookings",
      "outputs": [
        {
          "internalType": "uint256[]",
          "name": "",
          "type": "uint256[]"
        }
      ],
      "stateMutability": "view",
      "type": "function"
    },
    {
      "inputs": [
        {
          "internalType": "uint256",
          "name": "_rideId",
          "type": "uint256"
        }
      ],
      "name": "getRideDetails",
      "outputs": [
        {
          "internalType": "address",
          "name": "driver",
          "type": "address"
        },
        {
          "internalType": "uint256",
          "name": "seats",
          "type": "uint256"
        },
        {
          "internalType": "uint256",
          "name": "availableSeats",
          "type": "uint256"
        },
        {
          "internalType": "uint256",
          "name": "pricePerSeat",
          "type": "uint256"
        },
        {
          "internalType": "string",
          "name": "origin",
          "type": "string"
        },
        {
          "internalType": "string",
          "name": "destination",
          "type": "string"
        },
        {
          "internalType": "uint256",
          "name": "departureTime",
          "type": "uint256"
        },
        {
          "internalType": "bool",
          "name": "active",
          "type": "bool"
        }
      ],
      "stateMutability": "view",
      "type": "function"
    }
  ],
  "bytecode": "0x608060405234801561001057600080fd5b50612848806100206000396000f3fe6080604052600436106100a75760003560e01c8063a6f07b2911610064578063a6f07b29146101fb578063c416dd0b14610224578063cdfa7dc61461024d578063cebc046f1461028a578063e3a4d3a2146102b5578063f98b6778146102f2576100a7565b80630dca825e146100ac5780631d6be93c146100d55780631dab301e146101195780632d452ed61461015b5780635205f1121461018b578063729a7081146101d0575b600080fd5b3480156100b857600080fd5b506100d360048036038101906100ce919061162f565b61032f565b005b3480156100e157600080fd5b506100fc60048036038101906100f7919061162f565b61058c565b604051610110989796959493929190611757565b60405180910390f35b34801561012557600080fd5b50610140600480360381019061013b919061162f565b610736565b604051610152969594939291906117e3565b60405180910390f35b61017560048036038101906101709190611844565b6107ac565b6040516101829190611884565b60405180910390f35b34801561019757600080fd5b506101b260048036038101906101ad919061162f565b610bc4565b6040516101c7999897969594939291906118c0565b60405180910390f35b3480156101dc57600080fd5b506101e5610d4f565b6040516101f29190611a19565b60405180910390f35b34801561020757600080fd5b50610222600480360381019061021d919061162f565b610de4565b005b34801561023057600080fd5b5061024b6004803603810190610246919061162f565b610f86565b005b34801561025957600080fd5b50610274600480360381019061026f9190611a67565b611257565b6040516102819190611884565b60405180910390f35b34801561029657600080fd5b5061029f611288565b6040516102ac9190611a19565b60405180910390f35b3480156102c157600080fd5b506102dc60048036038101906102d79190611a67565b61131d565b6040516102e99190611884565b60405180910390f35b3480156102fe57600080fd5b5061031960048036038101906103149190611bdc565b61134e565b6040516103269190611884565b60405180910390f35b803373ffffffffffffffffffffffffffffffffffffffff166003600083815260200190815260200160002060020160009054906101000a900473ffffffffffffffffffffffffffffffffffffffff1673ffffffffffffffffffffffffffffffffffffffff16146103d4576040517f08c379a00000000000000000000000000000000000000000000000000000000081526004016103cb90611d01565b60405180910390fd5b60006003600084815260200190815260200160002090506000600260008360010154815260200190815260200160002090508160040160009054906101000a900460ff16801561043357508160040160019054906101000a900460ff16155b610472576040517f08c379a000000000000000000000000000000000000000000000000000000000815260040161046990611d93565b60405180910390fd5b428160070154116104b8576040517f08c379a00000000000000000000000000000000000000000000000000000000081526004016104af90611e25565b60405180910390fd5b60018260040160016101000a81548160ff02191690831515021790555081600301548160030160008282546104ed9190611e74565b9250508190555060008260030154826004015461050a9190611ea8565b90503373ffffffffffffffffffffffffffffffffffffffff166108fc829081150290604051600060405180830381858888f19350505050158015610552573d6000803e3d6000fd5b508260010154857ff3ad9f310a1371c25f06d5a530282a227e94c2cabc99fd4afee3888080ee21fa60405160405180910390a35050505050565b6000806000806060806000806000600260008b815260200190815260200160002090508060010160009054906101000a900473ffffffffffffffffffffffffffffffffffffffff16816002015482600301548360040154846005018560060186600701548760080160009054906101000a900460ff1683805461060e90611f19565b80601f016020809104026020016040519081016040528092919081815260200182805461063a90611f19565b80156106875780601f1061065c57610100808354040283529160200191610687565b820191906000526020600020905b81548152906001019060200180831161066a57829003601f168201915b5050505050935082805461069a90611f19565b80601f01602080910402602001604051908101604052809291908181526020018280546106c690611f19565b80156107135780601f106106e857610100808354040283529160200191610713565b820191906000526020600020905b8154815290600101906020018083116106f657829003601f168201915b505050505092509850985098509850985098509850985050919395975091939597565b60036020528060005260406000206000915090508060000154908060010154908060020160009054906101000a900473ffffffffffffffffffffffffffffffffffffffff16908060030154908060040160009054906101000a900460ff16908060040160019054906101000a900460ff16905086565b6000806002600085815260200190815260200160002090508060080160009054906101000a900460ff16610815576040517f08c379a000000000000000000000000000000000000000000000000000000000815260040161080c90611f96565b60405180910390fd5b3373ffffffffffffffffffffffffffffffffffffffff168160010160009054906101000a900473ffffffffffffffffffffffffffffffffffffffff1673ffffffffffffffffffffffffffffffffffffffff16036108a7576040517f08c379a000000000000000000000000000000000000000000000000000000000815260040161089e90612028565b60405180910390fd5b600083116108ea576040517f08c379a00000000000000000000000000000000000000000000000000000000081526004016108e190612094565b60405180910390fd5b8060030154831115610931576040517f08c379a000000000000000000000000000000000000000000000000000000000815260040161092890612100565b60405180910390fd5b42816007015411610977576040517f08c379a000000000000000000000000000000000000000000000000000000000815260040161096e9061216c565b60405180910390fd5b8281600401546109879190611ea8565b3410156109c9576040517f08c379a00000000000000000000000000000000000000000000000000000000081526004016109c0906121d8565b60405180910390fd5b6000600160008154809291906109de906121f8565b9190505590506040518060c001604052808281526020018681526020013373ffffffffffffffffffffffffffffffffffffffff1681526020018581526020016001151581526020016000151581525060036000838152602001908152602001600020600082015181600001556020820151816001015560408201518160020160006101000a81548173ffffffffffffffffffffffffffffffffffffffff021916908373ffffffffffffffffffffffffffffffffffffffff1602179055506060820151816003015560808201518160040160006101000a81548160ff02191690831515021790555060a08201518160040160016101000a81548160ff02191690831515021790555090505083826003016000828254610afc9190612240565b92505081905550600560003373ffffffffffffffffffffffffffffffffffffffff1673ffffffffffffffffffffffffffffffffffffffff1681526020019081526020016000208190806001815401808255809150506001900390600052602060002001600090919091909150553373ffffffffffffffffffffffffffffffffffffffff1685827f501a83174fe12dbe220d3406a4fb6502e4e6ac4a6e8d42bc1491df6a26c5fd1887604051610bb19190611884565b60405180910390a4809250505092915050565b60026020528060005260406000206000915090508060000154908060010160009054906101000a900473ffffffffffffffffffffffffffffffffffffffff1690806002015490806003015490806004015490806005018054610c2590611f19565b80601f0160208091040260200160405190810160405280929190818152602001828054610c5190611f19565b8015610c9e5780601f10610c7357610100808354040283529160200191610c9e565b820191906000526020600020905b815481529060010190602001808311610c8157829003601f168201915b505050505090806006018054610cb390611f19565b80601f0160208091040260200160405190810160405280929190818152602001828054610cdf90611f19565b8015610d2c5780601f10610d0157610100808354040283529160200191610d2c565b820191906000526020600020905b815481529060010190602001808311610d0f57829003601f168201915b5050505050908060070154908060080160009054906101000a900460ff16905089565b6060600460003373ffffffffffffffffffffffffffffffffffffffff1673ffffffffffffffffffffffffffffffffffffffff168152602001908152602001600020805480602002602001604051908101604052809291908181526020018280548015610dda57602002820191906000526020600020905b815481526020019060010190808311610dc6575b5050505050905090565b803373ffffffffffffffffffffffffffffffffffffffff166002600083815260200190815260200160002060010160009054906101000a900473ffffffffffffffffffffffffffffffffffffffff1673ffffffffffffffffffffffffffffffffffffffff1614610e89576040517f08c379a0000000000000000000000000000000000000000000000000000000008152600401610e80906122e6565b60405180910390fd5b60006002600084815260200190815260200160002090508060080160009054906101000a900460ff16610ef1576040517f08c379a0000000000000000000000000000000000000000000000000000000008152600401610ee890612378565b60405180910390fd5b42816007015411610f37576040517f08c379a0000000000000000000000000000000000000000000000000000000008152600401610f2e9061240a565b60405180910390fd5b60008160080160006101000a81548160ff021916908315150217905550827f0c23eb44b06124e00526761c3c77095fc814bb72c9be3ac1e58f0bc2ebfe4f7e60405160405180910390a2505050565b803373ffffffffffffffffffffffffffffffffffffffff166002600083815260200190815260200160002060010160009054906101000a900473ffffffffffffffffffffffffffffffffffffffff1673ffffffffffffffffffffffffffffffffffffffff161461102b576040517f08c379a0000000000000000000000000000000000000000000000000000000008152600401611022906122e6565b60405180910390fd5b60006002600084815260200190815260200160002090508060080160009054906101000a900460ff16611093576040517f08c379a000000000000000000000000000000000000000000000000000000000815260040161108a90612378565b60405180910390fd5b80600701544210156110da576040517f08c379a00000000000000000000000000000000000000000000000000000000081526004016110d190612476565b60405180910390fd5b60008160080160006101000a81548160ff02191690831515021790555060008160020154905060008260030154826111129190612240565b905060008360040154826111269190611ea8565b90506000811180156111385750804710155b156111dc5760008460010160009054906101000a900473ffffffffffffffffffffffffffffffffffffffff1673ffffffffffffffffffffffffffffffffffffffff166108fc839081150290604051600060405180830381858888f193505050509050806111da576040517f08c379a00000000000000000000000000000000000000000000000000000000081526004016111d1906124e2565b60405180910390fd5b505b8360010160009054906101000a900473ffffffffffffffffffffffffffffffffffffffff1673ffffffffffffffffffffffffffffffffffffffff16867fcb83035a6ac21556c91f3c3f262829fff474823a7c4d9ae09db79d65ff3fc225836040516112479190611884565b60405180910390a3505050505050565b6004602052816000526040600020818154811061127357600080fd5b90600052602060002001600091509150505481565b6060600560003373ffffffffffffffffffffffffffffffffffffffff1673ffffffffffffffffffffffffffffffffffffffff16815260200190815260200160002080548060200260200160405190810160405280929190818152602001828054801561131357602002820191906000526020600020905b8154815260200190600101908083116112ff575b5050505050905090565b6005602052816000526040600020818154811061133957600080fd5b90600052602060002001600091509150505481565b6000808611611392576040517f08c379a000000000000000000000000000000000000000000000000000000000815260040161138990612094565b60405180910390fd5b4282116113d4576040517f08c379a00000000000000000000000000000000000000000000000000000000081526004016113cb90612574565b60405180910390fd5b60008060008154809291906113e8906121f8565b9190505590506040518061012001604052808281526020013373ffffffffffffffffffffffffffffffffffffffff16815260200188815260200188815260200187815260200186815260200185815260200184815260200160011515815250600260008381526020019081526020016000206000820151816000015560208201518160010160006101000a81548173ffffffffffffffffffffffffffffffffffffffff021916908373ffffffffffffffffffffffffffffffffffffffff16021790555060408201518160020155606082015181600301556080820151816004015560a08201518160050190816114de9190612740565b5060c08201518160060190816114f49190612740565b5060e082015181600701556101008201518160080160006101000a81548160ff021916908315150217905550905050600460003373ffffffffffffffffffffffffffffffffffffffff1673ffffffffffffffffffffffffffffffffffffffff1681526020019081526020016000208190806001815401808255809150506001900390600052602060002001600090919091909150553373ffffffffffffffffffffffffffffffffffffffff16817fd703df647e2a42b8bd82f2c8b30ca4105875d0e0044e4b0e16218b79ed2f20a0856040516115d09190611884565b60405180910390a38091505095945050505050565b6000604051905090565b600080fd5b600080fd5b6000819050919050565b61160c816115f9565b811461161757600080fd5b50565b60008135905061162981611603565b92915050565b600060208284031215611645576116446115ef565b5b60006116538482850161161a565b91505092915050565b600073ffffffffffffffffffffffffffffffffffffffff82169050919050565b60006116878261165c565b9050919050565b6116978161167c565b82525050565b6116a6816115f9565b82525050565b600081519050919050565b600082825260208201905092915050565b60005b838110156116e65780820151818401526020810190506116cb565b60008484015250505050565b6000601f19601f8301169050919050565b600061170e826116ac565b61171881856116b7565b93506117288185602086016116c8565b611731816116f2565b840191505092915050565b60008115159050919050565b6117518161173c565b82525050565b60006101008201905061176d600083018b61168e565b61177a602083018a61169d565b611787604083018961169d565b611794606083018861169d565b81810360808301526117a68187611703565b905081810360a08301526117ba8186611703565b90506117c960c083018561169d565b6117d660e0830184611748565b9998505050505050505050565b600060c0820190506117f8600083018961169d565b611805602083018861169d565b611812604083018761168e565b61181f606083018661169d565b61182c6080830185611748565b61183960a0830184611748565b979650505050505050565b6000806040838503121561185b5761185a6115ef565b5b60006118698582860161161a565b925050602061187a8582860161161a565b9150509250929050565b6000602082019050611899600083018461169d565b92915050565b60006118aa8261165c565b9050919050565b6118ba8161189f565b82525050565b6000610120820190506118d6600083018c61169d565b6118e3602083018b6118b1565b6118f0604083018a61169d565b6118fd606083018961169d565b61190a608083018861169d565b81810360a083015261191c8187611703565b905081810360c08301526119308186611703565b905061193f60e083018561169d565b61194d610100830184611748565b9a9950505050505050505050565b600081519050919050565b600082825260208201905092915050565b6000819050602082019050919050565b611990816115f9565b82525050565b60006119a28383611987565b60208301905092915050565b6000602082019050919050565b60006119c68261195b565b6119d08185611966565b93506119db83611977565b8060005b83811015611a0c5781516119f38882611996565b97506119fe836119ae565b9250506001810190506119df565b5085935050505092915050565b60006020820190508181036000830152611a3381846119bb565b905092915050565b611a448161167c565b8114611a4f57600080fd5b50565b600081359050611a6181611a3b565b92915050565b60008060408385031215611a7e57611a7d6115ef565b5b6000611a8c85828601611a52565b9250506020611a9d8582860161161a565b9150509250929050565b600080fd5b600080fd5b7f4e487b7100000000000000000000000000000000000000000000000000000000600052604160045260246000fd5b611ae9826116f2565b810181811067ffffffffffffffff82111715611b0857611b07611ab1565b5b80604052505050565b6000611b1b6115e5565b9050611b278282611ae0565b919050565b600067ffffffffffffffff821115611b4757611b46611ab1565b5b611b50826116f2565b9050602081019050919050565b82818337600083830152505050565b6000611b7f611b7a84611b2c565b611b11565b905082815260208101848484011115611b9b57611b9a611aac565b5b611ba6848285611b5d565b509392505050565b600082601f830112611bc357611bc2611aa7565b5b8135611bd3848260208601611b6c565b91505092915050565b600080600080600060a08688031215611bf857611bf76115ef565b5b6000611c068882890161161a565b9550506020611c178882890161161a565b945050604086013567ffffffffffffffff811115611c3857611c376115f4565b5b611c4488828901611bae565b935050606086013567ffffffffffffffff811115611c6557611c646115f4565b5b611c7188828901611bae565b9250506080611c828882890161161a565b9150509295509295909350565b7f4f6e6c79207468652070617373656e6765722063616e20706572666f726d207460008201527f68697320616374696f6e00000000000000000000000000000000000000000000602082015250565b6000611ceb602a836116b7565b9150611cf682611c8f565b604082019050919050565b60006020820190508181036000830152611d1a81611cde565b9050919050565b7f426f6f6b696e67206973206e6f7420656c696769626c6520666f72207265667560008201527f6e64000000000000000000000000000000000000000000000000000000000000602082015250565b6000611d7d6022836116b7565b9150611d8882611d21565b604082019050919050565b60006020820190508181036000830152611dac81611d70565b9050919050565b7f43616e6e6f742063616e63656c2061667465722064657061727475726520746960008201527f6d65000000000000000000000000000000000000000000000000000000000000602082015250565b6000611e0f6022836116b7565b9150611e1a82611db3565b604082019050919050565b60006020820190508181036000830152611e3e81611e02565b9050919050565b7f4e487b7100000000000000000000000000000000000000000000000000000000600052601160045260246000fd5b6000611e7f826115f9565b9150611e8a836115f9565b9250828201905080821115611ea257611ea1611e45565b5b92915050565b6000611eb3826115f9565b9150611ebe836115f9565b9250828202611ecc816115f9565b91508282048414831517611ee357611ee2611e45565b5b5092915050565b7f4e487b7100000000000000000000000000000000000000000000000000000000600052602260045260246000fd5b60006002820490506001821680611f3157607f821691505b602082108103611f4457611f43611eea565b5b50919050565b7f52696465206973206e6f74206163746976650000000000000000000000000000600082015250565b6000611f806012836116b7565b9150611f8b82611f4a565b602082019050919050565b60006020820190508181036000830152611faf81611f73565b9050919050565b7f4472697665722063616e6e6f7420626f6f6b207468656972206f776e2072696460008201527f6500000000000000000000000000000000000000000000000000000000000000602082015250565b60006120126021836116b7565b915061201d82611fb6565b604082019050919050565b6000602082019050818103600083015261204181612005565b9050919050565b7f5365617473206d7573742062652067726561746572207468616e207a65726f00600082015250565b600061207e601f836116b7565b915061208982612048565b602082019050919050565b600060208201905081810360008301526120ad81612071565b9050919050565b7f4e6f7420656e6f75676820736561747320617661696c61626c65000000000000600082015250565b60006120ea601a836116b7565b91506120f5826120b4565b602082019050919050565b60006020820190508181036000830152612119816120dd565b9050919050565b7f526964652068617320616c726561647920646570617274656400000000000000600082015250565b60006121566019836116b7565b915061216182612120565b602082019050919050565b6000602082019050818103600083015261218581612149565b9050919050565b7f496e73756666696369656e74207061796d656e74000000000000000000000000600082015250565b60006121c26014836116b7565b91506121cd8261218c565b602082019050919050565b600060208201905081810360008301526121f1816121b5565b9050919050565b6000612203826115f9565b91507fffffffffffffffffffffffffffffffffffffffffffffffffffffffffffffffff820361223557612234611e45565b5b600182019050919050565b600061224b826115f9565b9150612256836115f9565b925082820390508181111561226e5761226d611e45565b5b92915050565b7f4f6e6c7920746865206472697665722063616e20706572666f726d207468697360008201527f20616374696f6e00000000000000000000000000000000000000000000000000602082015250565b60006122d06027836116b7565b91506122db82612274565b604082019050919050565b600060208201905081810360008301526122ff816122c3565b9050919050565b7f5269646520697320616c726561647920636f6d706c65746564206f722063616e60008201527f63656c6c65640000000000000000000000000000000000000000000000000000602082015250565b60006123626026836116b7565b915061236d82612306565b604082019050919050565b6000602082019050818103600083015261239181612355565b9050919050565b7f43616e6e6f742063616e63656c2061207269646520746861742068617320616c60008201527f7265616479206465706172746564000000000000000000000000000000000000602082015250565b60006123f4602e836116b7565b91506123ff82612398565b604082019050919050565b60006020820190508181036000830152612423816123e7565b9050919050565b7f5269646520686173206e6f742079657420646570617274656400000000000000600082015250565b60006124606019836116b7565b915061246b8261242a565b602082019050919050565b6000602082019050818103600083015261248f81612453565b9050919050565b7f5061796d656e74207472616e73666572206661696c6564000000000000000000600082015250565b60006124cc6017836116b7565b91506124d782612496565b602082019050919050565b600060208201905081810360008301526124fb816124bf565b9050919050565b7f4465706172747572652074696d65206d75737420626520696e2074686520667560008201527f7475726500000000000000000000000000000000000000000000000000000000602082015250565b600061255e6024836116b7565b915061256982612502565b604082019050919050565b6000602082019050818103600083015261258d81612551565b9050919050565b60008190508160005260206000209050919050565b60006020601f8301049050919050565b600082821b905092915050565b6000600883026125f67fffffffffffffffffffffffffffffffffffffffffffffffffffffffffffffffff826125b9565b61260086836125b9565b95508019841693508086168417925050509392505050565b6000819050919050565b600061263d612638612633846115f9565b612618565b6115f9565b9050919050565b6000819050919050565b61265783612622565b61266b61266382612644565b8484546125c6565b825550505050565b600090565b612680612673565b61268b81848461264e565b505050565b5b818110156126af576126a4600082612678565b600181019050612691565b5050565b601f8211156126f4576126c581612594565b6126ce846125a9565b810160208510156126dd578190505b6126f16126e9856125a9565b830182612690565b50505b505050565b600082821c905092915050565b6000612717600019846008026126f9565b1980831691505092915050565b60006127308383612706565b9150826002028217905092915050565b612749826116ac565b67ffffffffffffffff81111561276257612761611ab1565b5b61276c8254611f19565b6127778282856126b3565b600060209050601f8311600181146127aa5760008415612798578287015190505b6127a28582612724565b86555061280a565b601f1984166127b886612594565b60005b828110156127e0578489015182556001820191506020850194506020810190506127bb565b868310156127fd57848901516127f9601f891682612706565b8355505b6001600288020188555050505b50505050505056fea2646970667358221220df5a9efc3f57ea7bc48d3aa75cd8bfbd74663c9482dfdeba178144c570f7261c64736f6c63430008110033",
  "immutableReferences": {},
  "source": "pragma solidity ^0.8.0;\r\n\r\ncontract CarpoolingContract {\r\n    struct Ride {\r\n        uint256 id;\r\n        address payable driver;\r\n        uint256 seats;\r\n        uint256 availableSeats;\r\n        uint256 pricePerSeat;\r\n        string origin;\r\n        string destination;\r\n        uint256 departureTime;\r\n        bool active;\r\n    }\r\n\r\n    struct Booking {\r\n        uint256 id;\r\n        uint256 rideId;\r\n        address passenger;\r\n        uint256 seats;\r\n        bool paid;\r\n        bool refunded;\r\n    }\r\n\r\n    uint256 private rideCounter;\r\n    uint256 private bookingCounter;\r\n    mapping(uint256 => Ride) public rides;\r\n    mapping(uint256 => Booking) public bookings;\r\n    mapping(address => uint256[]) public userRides;\r\n    mapping(address => uint256[]) public userBookings;\r\n\r\n    event RideCreated(uint256 indexed rideId, address indexed driver, uint256 departureTime);\r\n    event RideBooked(uint256 indexed bookingId, uint256 indexed rideId, address indexed passenger, uint256 seats);\r\n    event RideCancelled(uint256 indexed rideId);\r\n    event BookingCancelled(uint256 indexed bookingId, uint256 indexed rideId);\r\n    event PaymentCompleted(uint256 indexed bookingId, uint256 amount);\r\n    event RideCompleted(uint256 indexed rideId, address indexed driver, uint256 amount);\r\n\r\n    modifier onlyDriver(uint256 _rideId) {\r\n        require(rides[_rideId].driver == msg.sender, \"Only the driver can perform this action\");\r\n        _;\r\n    }\r\n\r\n    modifier onlyPassenger(uint256 _bookingId) {\r\n        require(bookings[_bookingId].passenger == msg.sender, \"Only the passenger can perform this action\");\r\n        _;\r\n    }\r\n\r\n    function createRide(\r\n        uint256 _seats,\r\n        uint256 _pricePerSeat,\r\n        string memory _origin,\r\n        string memory _destination,\r\n        uint256 _departureTime\r\n    ) external returns (uint256) {\r\n        require(_seats > 0, \"Seats must be greater than zero\");\r\n        require(_departureTime > block.timestamp, \"Departure time must be in the future\");\r\n\r\n        uint256 rideId = rideCounter++;\r\n        \r\n        rides[rideId] = Ride({\r\n            id: rideId,\r\n            driver: payable(msg.sender),\r\n            seats: _seats,\r\n            availableSeats: _seats,\r\n            pricePerSeat: _pricePerSeat,\r\n            origin: _origin,\r\n            destination: _destination,\r\n            departureTime: _departureTime,\r\n            active: true\r\n        });\r\n\r\n        userRides[msg.sender].push(rideId);\r\n        \r\n        emit RideCreated(rideId, msg.sender, _departureTime);\r\n        return rideId;\r\n    }\r\n\r\n    function bookRide(uint256 _rideId, uint256 _seats) external payable returns (uint256) {\r\n        Ride storage ride = rides[_rideId];\r\n        \r\n        require(ride.active, \"Ride is not active\");\r\n        require(ride.driver != msg.sender, \"Driver cannot book their own ride\");\r\n        require(_seats > 0, \"Seats must be greater than zero\");\r\n        require(_seats <= ride.availableSeats, \"Not enough seats available\");\r\n        require(ride.departureTime > block.timestamp, \"Ride has already departed\");\r\n        require(msg.value >= ride.pricePerSeat * _seats, \"Insufficient payment\");\r\n\r\n        uint256 bookingId = bookingCounter++;\r\n        \r\n        bookings[bookingId] = Booking({\r\n            id: bookingId,\r\n            rideId: _rideId,\r\n            passenger: msg.sender,\r\n            seats: _seats,\r\n            paid: true,\r\n            refunded: false\r\n        });\r\n\r\n        ride.availableSeats -= _seats;\r\n        userBookings[msg.sender].push(bookingId);\r\n        \r\n        emit RideBooked(bookingId, _rideId, msg.sender, _seats);\r\n        return bookingId;\r\n    }\r\n\r\n    function completeRide(uint256 _rideId) external onlyDriver(_rideId) {\r\n    Ride storage ride = rides[_rideId];\r\n    require(ride.active, \"Ride is already completed or cancelled\");\r\n    require(block.timestamp >= ride.departureTime, \"Ride has not yet departed\");\r\n    \r\n    // Mark ride as inactive first\r\n    ride.active = false;\r\n    \r\n    // Calculate payment amount\r\n    uint256 totalSeats = ride.seats;\r\n    uint256 bookedSeats = totalSeats - ride.availableSeats;\r\n    uint256 totalAmount = bookedSeats * ride.pricePerSeat;\r\n    \r\n    // Transfer funds if there are any\r\n    if (totalAmount > 0 && address(this).balance >= totalAmount) {\r\n        bool success = ride.driver.send(totalAmount);\r\n        require(success, \"Payment transfer failed\");\r\n    }\r\n    \r\n    // Emit event\r\n    emit RideCompleted(_rideId, ride.driver, totalAmount);\r\n}\r\n\r\n    function cancelRide(uint256 _rideId) external onlyDriver(_rideId) {\r\n        Ride storage ride = rides[_rideId];\r\n        require(ride.active, \"Ride is already completed or cancelled\");\r\n        require(ride.departureTime > block.timestamp, \"Cannot cancel a ride that has already departed\");\r\n        \r\n        ride.active = false;\r\n        \r\n        emit RideCancelled(_rideId);\r\n        \r\n        // Process refunds for all passengers\r\n        // In a production app, you'd need to iterate through bookings for this ride\r\n        // This is simplified for brevity\r\n    }\r\n\r\n    function cancelBooking(uint256 _bookingId) external onlyPassenger(_bookingId) {\r\n        Booking storage booking = bookings[_bookingId];\r\n        Ride storage ride = rides[booking.rideId];\r\n        \r\n        require(booking.paid && !booking.refunded, \"Booking is not eligible for refund\");\r\n        require(ride.departureTime > block.timestamp, \"Cannot cancel after departure time\");\r\n        \r\n        booking.refunded = true;\r\n        ride.availableSeats += booking.seats;\r\n        \r\n        // Refund the passenger\r\n        uint256 refundAmount = ride.pricePerSeat * booking.seats;\r\n        payable(msg.sender).transfer(refundAmount);\r\n        \r\n        emit BookingCancelled(_bookingId, booking.rideId);\r\n    }\r\n\r\n    function getUserRides() external view returns (uint256[] memory) {\r\n        return userRides[msg.sender];\r\n    }\r\n\r\n    function getUserBookings() external view returns (uint256[] memory) {\r\n        return userBookings[msg.sender];\r\n    }\r\n\r\n    function getRideDetails(uint256 _rideId) external view returns (\r\n        address driver,\r\n        uint256 seats,\r\n        uint256 availableSeats,\r\n        uint256 pricePerSeat,\r\n        string memory origin,\r\n        string memory destination,\r\n        uint256 departureTime,\r\n        bool active\r\n    ) {\r\n        Ride storage ride = rides[_rideId];\r\n        return (\r\n            ride.driver,\r\n            ride.seats,\r\n            ride.availableSeats,\r\n            ride.pricePerSeat,\r\n            ride.origin,\r\n            ride.destination,\r\n            ride.departureTime,\r\n            ride.active\r\n        );\r\n    }\r\n}",
  "sourcePath": "C:\\Users\\prath\\Desktop\\carpooling-dapp\\blockchain\\contracts\\CarpoolingContract.sol",
  "compiler": {
    "name": "solc",
    "version": "0.8.17+commit.8df45f5f.Emscripten.clang"
  },
  "schemaVersion": "3.4.16",
  "updatedAt": "2025-04-23T06:25:35.279Z",
  "devdoc": {
    "kind": "dev",
    "methods": {},
    "version": 1
  },
  "userdoc": {
    "kind": "user",
    "methods": {},
    "version": 1
  }
}